:020000040800F2
:10000000600D002001010008E12F0008292B0008E5
:10001000BD2C00089D0B000861480008000000008E
:1000200000000000000000000000000095460008ED
:10003000A10B000800000000593E00089946000886
:100040001B0100081B0100081B0100081B01000820
:100050001B0100081B0100081B0100081B01000810
:100060001B0100081B0100081B0100081B01000800
:100070001B0100081B0100081B0100081B010008F0
:100080001B0100081B0100081B0100081B010008E0
:100090001B0100081B0100081B0100081B010008D0
:1000A0001B0100081B0100081B0100081B010008C0
:1000B000A14600081B0100081B0100081B010008E5
:1000C0001B0100081B0100081B0100081B010008A0
:1000D0001B010008494800081B010008554800089A
:1000E0001B0100081B0100081B010008DFF80CD0F1
:1000F00000F00AFC00480047A1480008600D0020FD
:100100000648804706480047FEE7FEE7FEE7FEE7B1
:10011000FEE7FEE7FEE7FEE7FEE7FEE79D46000896
:10012000ED000008D2B201E000F8012B491EFBD21D
:1001300070470022F6E710B513460A4604461946F2
:10014000FFF7F0FF204610BD10B5002200E0521C62
:10015000835C8C5CA34201D1002BF8D1D8B2E1B210
:10016000401A10BDF0B480EA0102D40F4200B2EB95
:10017000410F02D20246084611464A0042D0C30D42
:10018000DDB2C1F3C752AD1A202D35DAC1F3160125
:1001900041F4000204B15242C5F1200602FA06F110
:1001A0002A411044B3EBD05F23D0C4B1012DA0EBA2
:1001B000C35009DCF0BC4FF0004202EAC352DBB28C
:1001C00000F5000000F0E4BA400000F1807000EBA0
:1001D000C350A0F1807040EAD170490009E049089D
:1001E00041EAC071A0EBC35000F50000400800EBED
:1001F000C350F0BC00F0C3BA6142012202EB4101DE
:10020000001BF6E7F0BC704781F00041AAE780F0E0
:100210000040A7E780EA010210B502F00043400069
:1002200022D04A001FD0010E01EB1261C0F356002C
:10023000C2F3560240F4000042F40002A0FB022088
:1002400000047F39140400D0401C50EA124001D44D
:100250004000491EC2B20C0604EBD010401C4008FE
:10026000802A02D003E0002010BD20F00100002908
:1002700000DA0020184310BD2DE9FE4F804681EAC8
:100280000300C00F0C46009021F0004123F0004510
:10029000B8EB0200A94105D24046214690461C46D3
:1002A0000B46024623F00040104347D0270DC7F30A
:1002B0000A00C3F30A510290401A019040286BDAF9
:1002C000C3F3130040F4801B0098924620B1002332
:1002D000D2EB030A63EB0B0B01985946C0F14002C5
:1002E000504600F01BFA06460D4650465946019A04
:1002F00000F033FA10EB08006141002487EA115244
:1003000084EAE7731A4340D0009A62B3019A012A43
:100310004FEA075215DC001B61EB02014FF000426F
:1003200002EA0752CDE90042001C41F58011324635
:100330002B4600F06AFA03B0BDE8F08F4046214634
:10034000F9E7001B61EB0201001C41F58013001866
:100350005B412018A2F5001747EB030140EAD57076
:10036000B6196D4111E06D084FEA360645EAC075D1
:100370004FEA0752001B61EB0201001C41F580119E
:1003800049084FEA30000019514132462B4603B06C
:10039000BDE8F04F00F02ABA009801224000002387
:1003A000D0EB020263EBE073009821464FEAE07461
:1003B000B8EB000061EB0401E9E783F000435BE781
:1003C00081F0004158E72DE9FE4F81EA030404F073
:1003D000004421F0004100944FF0000B23F0004353
:1003E00050EA01045ED052EA03045BD0C3F30A541E
:1003F000C1F30A552C44A4F2F3340194A0FB025437
:10040000C1F3130141F48011C3F3130343F48013C8
:1004100001FB024400FB034E840A970A44EA81541C
:1004200047EA8357A4FB076802958D0A05FB0785F9
:100430004FEA932C04FB0C542705029D4FEA065803
:1004400047EA1637B5EB08056EEB070C870E920EE0
:1004500047EA811742EA8312A7FB0201B6EB0B01C0
:1004600064EB00042B0D43EA0C335E1844EB1C5084
:10047000DA465146E7FB0201C5F313044FEA0B339A
:1004800043EA14534FEA0432019C43EA0603A4F101
:100490000C040294009CCDE900B400F0B6F903B05E
:1004A000BDE8F08F00200146F9E72DE9F04D81EA23
:1004B000030404F0004B21F0004514464FF0000AFD
:1004C00023F0004150EA050220D054EA01021DD079
:1004D000C5F30A570246C5F31303C1F31300C1F372
:1004E0000A5640F4801543F48013A7EB0608101B4E
:1004F000D64608F2FD3873EB050002D308F1010877
:1005000001E092185B41B8F1000F03DA00200146C8
:10051000BDE8F08D00204FF48011064684460EE0C1
:10052000171B73EB050705D3121B63EB050306438B
:100530004CEA010C49084FEA300092185B4150EA3E
:100540000107EDD152EA030012D082EA040083EAE7
:100550000501084305D0101BAB4106D20122002340
:1005600006E000224FF0004302E06FF0010253105A
:100570001AEB06004CEB085110EB0A0041EB0B01A3
:10058000BDE8F04D00F032B9002801DBC0F10040B9
:10059000002901DBC1F10041814201D801207047EF
:1005A00000207047002801DBC0F10040002901DB7A
:1005B000C1F10041814201D3012070470020704702
:1005C000002801DBC0F10040002901DBC1F100413E
:1005D000814201D901207047002070470EB5C10F3C
:1005E00080EAE0700844CA07002140F233438DE8F6
:1005F0000E000A460B4600F008F903B000BD00F0FB
:10060000004220F00040C10DC0F3160040F400008D
:100610007F2901DA00207047962903DCC1F1960199
:10062000C84001E096398840002AF4D04042704723
:1006300000F0004230F000400AD0C10D01F56071B9
:10064000C0F3160042EA0151C20840071143704747
:1006500000200146704701F0004330B421F0004112
:1006600050EA010206D00A0DA2F56072C1F313012F
:10067000002A02DC30BC00207047440F44EAC10469
:10068000C100E01830BC00EBC25000F078B830B5C3
:100690000B46014600202022012409E021FA02F540
:1006A0009D4205D303FA02F5491B04FA02F52844DA
:1006B000151EA2F10102F1DC30BD2DE9F05F054607
:1006C000002092469B4688460646814640241BE011
:1006D000284641464746224600F02FF853465A46E0
:1006E000C01A914110D311461846224600F016F860
:1006F0002D1A67EB01084F4622460120002100F029
:100700000DF817EB00094E41201EA4F10104DFDCB7
:10071000484631462A464346BDE8F09F202A04DB7E
:10072000203A00FA02F1002070479140C2F1200304
:1007300020FA03F3194390407047202A04DB203A43
:1007400021FA02F00021704721FA02F3D040C2F1F1
:1007500020029140084319467047202A06DBCB1738
:10076000203A41FA02F043EAE07306E041FA02F36C
:10077000D040C2F120029140084319467047002939
:10078000A8BF7047401C490008BF20F00100704717
:1007900010B4B0FA80FC00FA0CF050EA010404BF77
:1007A00010BC704749B1CCF1200421FA04F411FACD
:1007B0000CF118BF012121430843A3EB0C01CB1D11
:1007C0004FEA00614FEA102042BF002010BC704782
:1007D00000EBC35010440029A4BF10BC7047401C5C
:1007E000490008BF20F0010010BC704710B5141E6E
:1007F00073F1000408DA401C41F1000192185B41DA
:100800001A4301D120F0010010BD2DE9F04D9246B0
:100810009B4611B1B1FA81F202E0B0FA80F22032C7
:100820009046FFF77BFF04460F4640EA0A0041EA84
:100830000B0153465A46084313D0114653EA0100B0
:1008400019D0C8F140025046FFF777FF05460E4623
:10085000504659464246FFF761FF084305D0012044
:1008600004E020463946BDE8F08D0020054346EA05
:10087000E0762C4337430A986305E40AA0EB0800AE
:100880000022FD0A44EA47540A3002D500200146FE
:10089000E9E7010510196941DDE9084500196941D9
:1008A000BDE8F04DA2E7C1F30A52C1F3130140F2D3
:1008B000FF3341F480119A4202DA0020014670476A
:1008C00040F233439A42A2F2334202DC5242FFF733
:1008D00034BFFFF723BF000030B5041E71F10004E0
:1008E00004DB4FF00044404264EB0101141E73F13D
:1008F000000405DB1C464FF00043524263EB040347
:10090000994208BF904230BD1CB509480090094883
:1009100001900546009C06E0E06840F0010394E881
:10092000070098471034AC42F6D3FFF7E3FB000012
:10093000BC5B0008DC5B000880B502F015FB02F030
:10094000BFF940F20800C2F20000007801281FD170
:1009500000F0E2FA06281BD10020012100F01EF869
:100960000120022100F01AF80220032100F016F8FD
:100970000320002100F012F840F2285045F6AF3174
:10098000C2F20000C0F600010122322302F000F89A
:1009900002F086FABDE8804003F08CB82DE9F04FF4
:1009A00083B0044640F29C00C2F2000040F21009FD
:1009B00000F11C08C2F2000900F12C05D9F8000072
:1009C00058F8242055F824608B4600274FF0640A1D
:1009D0000321C823CDE900A700F0FEF9D9F80000F3
:1009E00000213246C823CDE900A700F0F5F9C82060
:1009F00000F090FB58F8246058F82B003146FFF7C0
:100A000003FC4FF07A51FFF705FC3146FFF7AAFBD4
:100A100055F8246055F82B10074608463146FFF775
:100A2000F3FB4FF07A51FFF7F5FB3146FFF79AFBE6
:100A3000D9F800100646084603213A46C823002785
:100A4000CDE900A700F0C8F9D9F80000002132462E
:100A5000C823CDE900A700F0BFF9C82000F05AFB79
:100A600058F8246058F82B003146FFF7CDFB4FF0C3
:100A70007C51FFF7CFFB3146FFF774FB55F824603C
:100A800055F82B10074608463146FFF7BDFB4FF0DF
:100A90007C51FFF7BFFB3146FFF764FBD9F800102C
:100AA0000646084603213A46C8230027CDE900A799
:100AB00000F092F9D9F8000000213246C823CDE9B0
:100AC00000A700F089F9C82000F024FB58F8246042
:100AD00058F82B003146FFF797FB4FF07D51FFF799
:100AE00099FB3146FFF73EFB55F8246055F82B1073
:100AF000074608463146FFF787FB4FF07D51FFF769
:100B000089FB3146FFF72EFBD9F800100646084650
:100B100003213A46C8230027CDE900A700F05CF97D
:100B2000D9F8000000213246C823CDE900A70027EC
:100B300000F052F9C82000F0EDFA58F8246058F897
:100B40002B003146FFF760FB3146FFF70BFB55F8F2
:100B5000244055F82B10054608462146FFF754FB64
:100B60002146FFF7FFFAD9F8001004460846032192
:100B70002A46C823CDE900A700F02EF9D9F80000D5
:100B800000212246C823CDE900A700F025F9C8209E
:100B900003B0BDE8F04F00F0BDBA0000FEE7000072
:100BA00070470000EFF3108072B600BFFEE7000050
:100BB0002DE9F0418EB0064644F61240C0F20A100C
:100BC0007768009068460D46041D8DF8041038467D
:100BD00044F61241904603F007FD38460A2103F01F
:100BE0004BFB3846012103F047FB384621460122E2
:100BF00003F070FB384603F03BF90146384603F03A
:100C00003BFB304603F02EFE6946304600F020F8EC
:100C100010B10EB0BDE8F0819DF80400A84213D1D8
:100C2000BDF90500FFF7DAFC0023C4F2240300221B
:100C3000FFF73BFCFFF70FFD01460020C8F800104E
:100C40000EB0BDE8F08100BF07200EB0BDE8F08116
:100C50002DE9F04190B00646002564200C4681F84D
:100C6000375003F023FD04F10408002703F03AFD98
:100C700000285DD1B06803F0F1F80028F6D094F8B0
:100C8000370001075AD4410712D4810722D4C00784
:100C90002ED1B8B2052839D000284FF00007E5D191
:100CA000B06803F0CFFA0746052818BF0027DDE734
:100CB000B06803F0C7FAE9B20135E278EBB29342CB
:100CC00008F80100D2D194F8370040F0080084F809
:100CD0003700CBE7B06803F0B5FA2E28E0706BD28E
:100CE00094F8370040F0040084F83700BEE700BFF6
:100CF000B06803F0A7FA1228A07065D294F8370004
:100D000040F0020084F83700B0E700BFB06803F09D
:100D100099FA1C284FF00007A8D194F8370041F643
:100D2000054740F00100278084F837009EE700BFA8
:100D30000220C0B210B0BDE8F08100BFB06803F07F
:100D400081FA94F8371084F8360041F010000DAEA7
:100D500084F837000DF101023046322103F0FCF92E
:100D60002188304603F040FCA178304603F084FA35
:100D7000E178304603F080FAE2783046414603F0ED
:100D8000A9FA304603F074F80146304603F074FACD
:100D9000304603F063F8013881B2304603F0C2F9FF
:100DA00094F83650044603F091FC601B18BF0620EF
:100DB000C0B210B0BDE8F08103F088FC0520C0B2DD
:100DC00010B0BDE8F08100BF03F080FC0420C0B289
:100DD00010B0BDE8F08100002DE9F04F93B0174648
:100DE0008A46DDE91C85834602A86A4607219946A2
:100DF00003F0B2F90026C4F2343638463146FFF724
:100E0000DFFB58B90021CCF234313846FFF7CAFB7A
:100E10003E46002804BF0026CCF2343602AF3846E6
:100E2000514603F029FA0021C4F220113046FFF7A1
:100E3000F1F9FFF7E4FB0146384603F07FFB384643
:100E4000494603F0D1FB3846414603F0CDFB44F65A
:100E50001240C0F20870059005A8041DDDF80100DD
:100E60000199DBF804700690CDF81B10384644F663
:100E7000124103F0B9FB3846082103F0FDF938466A
:100E8000072103F0F9F938462146072203F022FA38
:100E9000384602F0EDFF0146384603F0EDF95846BA
:100EA00003F0E0FC85B305AA58465146FFF780FEE3
:100EB00005993046FFF7A8F920F000404FF07E5129
:100EC000FFF762FB00BB01244FF6F07842F20F758A
:100ED00005AF00BF04EA0800A84219D8642003F057
:100EE0000BFC584651463A46FFF762FE05993046DC
:100EF000FFF78AF920F000404FF07E51FFF760FBCA
:100F0000002804F10104E5D1002013B0BDE8F08F02
:100F1000012013B0BDE8F08F10B540F60044C4F2D4
:100F200001042046202100F011FA88B320464FF436
:100F3000807100F00BFAB8B320464FF4007100F056
:100F400005FA00283ED02046022100F0FFF90028D3
:100F500046D02046012100F0F9F900284CD0A4F534
:100F600080642046012100F0F1F900284FF00000D4
:100F700018BF10BD0F2000F0CDF82046012100F071
:100F8000E5F901460020002908BF062010BD00BF7A
:100F9000192000F0BFF82046202100F0D7F9B0FA60
:100FA00080F0400910BD00BF0F2000F0B3F82046CC
:100FB0004FF4807100F0CAF9B0FA80F040094000A7
:100FC00010BD00BF0F2000F0A5F820464FF40071BF
:100FD00000F0BCF901460020002908BF032010BD25
:100FE0000F2000F097F82046022100F0AFF9B0FA88
:100FF00080F04009800010BD0F2000F08BF82046E3
:10100000012100F0A3F901460020002908BF0520B6
:1010100010BD0000014690F82100022816D1086892
:10102000D1E90FC3026822F00E020260026822F0CA
:1010300001020260012000FA03F2CCF8042081F8DA
:1010400021000020002281F82020704704208863BE
:101050000120002281F820207047000090F8211024
:10106000022923D1026840F2040C1168C4F2020C78
:1010700021F00E01116013682F21C4F202018A428F
:1010800023F00103136015DD3023C4F202039A42FA
:101090001CD04423C4F202039A421BD05823C4F24A
:1010A00002039A421CD14FF4803321E00421816372
:1010B000012070470823C4F202039A420ED01C2379
:1010C000C4F202039A420BD1102311E04FF4807353
:1010D0000EE000BF4FF480530AE000BF012307E099
:1010E0000CF168014FF080738A4208BF4FF48013FF
:1010F0000121CCF8003080F82110416B002200293A
:1011000080F8202004BF0020704780B58847002069
:1011100080BD0000B0B5044600F024F9054640F259
:101120000000C2F200000078611C18BF044400BF38
:1011300000F018F9401BA042FAD3B0BD2DE9F04FE2
:1011400082B00E68002E00F0FD8041F20042C4F231
:101150000102042340F2004E904208BF03234FF6E1
:10116000FF7CC4F2010E009300240123C1F2100C95
:101170004FF0000A4FF000094BE000BF41F20002BF
:10118000C4F20102009F904208BF022704F00C0342
:101190000F229A402BEA020207FA03F34FEA9A055C
:1011A0001A4346F825204E6840F20C45F202DEF85C
:1011B000082054BF22EA080242EA0802C4F20105EC
:1011C000CEF808202A68B30254BF22EA080242EA95
:1011D00008022A60B303DEF8042054BF22EA0802A2
:1011E00042EA0802F303CEF80420DEF800204FF0B4
:1011F000010354BF22EA080242EA0802CEF80020A6
:101200000E680AF1010A36FA0AF204F1040400F049
:10121000998003FA0AFB16EA0B08F1D04E6866457E
:1012200012DC122E56D8DFE806F0350B4D49555525
:10123000555555555555555555555545510000BFB2
:10124000D1F80C9046E000BF4FF6FF72C1F22102C8
:1012500096420FDC0022C1F2110296421AD00022FF
:10126000C1F21202964215D00022C1F2210296422A
:1012700010D02FE00022C1F2220296420AD00022B2
:10128000C1F23102964205D00022C1F232029642EA
:1012900020D100BF8A684AB1012A14BFC0F814B037
:1012A000C0F810B04FF0080914E000BF4FF0040977
:1012B00010E000BFCA6802F104090BE04FF000091A
:1012C00008E000BFCA6802F1080903E0CA6802F139
:1012D0000C0900BF02462646B8F5807F24BF0432C1
:1012E000203E17680F25B54027EA050509FA06F6DE
:1012F00035431560CA79D2067FF582AF41F21803F3
:10130000C4F202031A68AEF57E7642F001021A605A
:101310001A6802F001020192019A2AF0030256F8BB
:1013200002B040F60002C4F20102904208D040F63A
:101330000042C4F2010290427FF420AF012725E76A
:10134000002723E702B0BDE8F08F00008068084066
:1013500018BF012070470000002A08BF090401617E
:101360007047000040F65C10C2F200000068704751
:1013700040F2000040F65C11C2F20000C2F200012F
:1013800000780A68104408607047000080B542F297
:101390000000C4F20200016841F010010160032066
:1013A00000F08CF80F2000F005F800F027F800207E
:1013B00080BD000070B540F20006C2F2000640F2A7
:1013C0000C013278C2F200014FF47A730968B3FB62
:1013D000F2F20446B1FBF2F1084600F085FB0F2C57
:1013E0004FF0010508D838B94FF0FF3021460022F0
:1013F000002500F037F87460284670BD82B041F2D5
:101400001800C4F202000168022241F001010160EB
:10141000016801F0010101910199416841F0805199
:101420004160406800F08050009000980420C4F2B1
:101430000100016862F31A61016002B070470000A8
:10144000002848BF704700F01F01012202FA01F195
:101450001C2202EAD0004EF20012CEF200028150AD
:101460007047000010B54EF60C5CCEF2000CDCF8B4
:101470000030C3F3022E8EF00704042C28BF04248E
:10148000BEF103034FF0FF3E0EFA04F438BF002311
:10149000A14399400EFA03F39A43114300F00F025F
:1014A00000F160430901043A03F5644362440028F3
:1014B00048BF02F10C03197010BD00004EF60C512C
:1014C000CEF200010A684FF6FF031A4060F30A22C9
:1014D00042F0806040F0FD7008607047002804BF53
:1014E000012070472DE9F04381B042F20008C4F2B8
:1014F00002080446D8F800000D4600F007008842B4
:101500000CD2D8F8000020F007002843C8F80000EB
:10151000D8F8000000F00700A8426CD1206841F222
:1015200004098107C4F2020917D5410705D5D9F886
:10153000001041F4E061C9F80010010705D5D9F8A1
:10154000001041F46051C9F80010D9F80010A268E9
:1015500021F0F0011143C9F80010C00742D1D8F8BA
:10156000000000F00700A8420CD9D8F8000020F0D5
:1015700007002843C8F80000D8F8000000F0070072
:10158000A84238D12068410707D5D9F80010E26891
:1015900021F4E0611143C9F80010000708D5D9F81B
:1015A0000000216920F4605040EAC100C9F8000041
:1015B000D9F8002002F00C00082841F20020C0F207
:1015C0007A004DD145F69F33C2F38341C0F6000344
:1015D000595CD20338D440F60010C0F23D004843B5
:1015E0003EE000BF606859F8041C022808D00128BA
:1015F00026D1890306D4012001B0BDE8F08300BFE5
:101600008901F8D5D9F8001021F003010843C9F881
:101610000000FFF7A7FE064641F28837D9F8000020
:10162000616800F00C00B0EB810F98D0FFF79AFED4
:10163000801BB842F2D9032001B0BDE8F08300BF9F
:101640008907D8D5DEE700BFD9F8002045F270231E
:10165000C2F34042C0F600039A5C4843B0FBF2F08C
:10166000D9F8001045F25822C1F30311C0F6000268
:10167000515C40F20C0220FA01F140F20400C2F287
:1016800000000068C2F200021160FFF793FE002024
:1016900001B0BDE8F083000040F20C0041F204010B
:1016A000C2F20000C4F202010068096845F2682233
:1016B000C1F30221C0F60002515CC840704700002F
:1016C00040F20C0041F20401C2F20000C4F2020137
:1016D0000068096845F26822C1F3C221C0F6000221
:1016E000515CC84070470000002804BF01207047CB
:1016F0002DE9F04182B00446007841F20006C007AF
:10170000C4F202060CD0706800F00C00042840F00F
:1017100081803068800303D56068002800F046812E
:10172000207880071BD5706810F00C0F09D0706806
:1017300000F00C00082840F087807068C00300F1BA
:1017400083803068800703D52069012840F02E810E
:101750003068616920F0F80040EAC100306020780C
:10176000000713D4207840072CD4E569002D00F041
:101770001881706800F00C00082840F0A780012D47
:1017800040F00481012002B0BDE8F081A06900288A
:1017900000F084800020C4F242200121C0F88014AF
:1017A000FFF7E0FD054600BF706A800700F1B280D8
:1017B000FFF7D8FD401B0228F6D9032002B0BDE890
:1017C000F08100BFF0695FEAC00808D4F06940F01A
:1017D0008050F061F06900F080500090009847F26E
:1017E0000007C4F200073868C00549D4386840F4DF
:1017F00080703860FFF7B6FD054600BF3868C00549
:101800003ED4FFF7AFFD401B6428F7D9032002B098
:10181000BDE8F081706800F00C00082803D1706802
:10182000C0033FF576AF61683068002900F00C8195
:10183000B1F5A02F00F00081B1F5803F40F01A8192
:1018400040F480301CE100BF2069002840F2000015
:10185000C4F2422000F0888001210160FFF782FD80
:10186000054600BF306880073FF572AFFFF77AFD8D
:10187000401B0228F6D9032002B0BDE8F08100BF6A
:10188000E168306A002900F09D80052900F092800F
:10189000012940F0AF8040F00100B1E00020C4F227
:1018A00042200021C0F88014FFF75CFD054600BF10
:1018B000706A80077FF556AFFFF754FD401B022882
:1018C000F6D9032002B0BDE8F08100BF0027C4F2C2
:1018D000422700203866FFF745FD022D05460DD151
:1018E0003068800140F1DE80FFF73CFD401B02289C
:1018F0004FF00300F4D902B0BDE8F08130688001F8
:101900004FD5FFF72FFD401B02284FF00300F5D9FC
:10191000F1E700BF40F20C00C2F20000006844F69C
:10192000D351C1F26201A0FB0101480A019000BF3E
:1019300000BF0198411E002801913FF413AF00BF82
:101940000198411E002801913FF40CAF00BF01989F
:10195000411E002801913FF405AF00BF0198411ED0
:1019600000280191E4D1FDE600210160FFF7FAFCB7
:10197000054600BF306880077FF5F1AEFFF7F2FC47
:10198000401B02284FF00300F4D9B4E77068216AC5
:1019900000F480328A4209D1616A00F470108842F2
:1019A00004D1002002B0BDE8F08100BF012002B0E8
:1019B000BDE8F08140F004003062306A40F0010080
:1019C0001EE000BF20F001003062306A20F0040009
:1019D0003062FFF7C7FC054641F28837306A80075E
:1019E00020D5FFF7BFFC401BB8424FF00300F5D9EC
:1019F00081E700BF20F001003062306A20F004006F
:101A00003062FFF7AFFC054641F28837306A800745
:101A100008D4FFF7A7FC401BB842F7D9032002B057
:101A2000BDE8F081B8F1000F3FF59FAEF06920F0FE
:101A30008050F06199E600BF40F48020306030684B
:101A400040F480301CE000BF20F48030306030680B
:101A500020F480203060FFF785FC05463068800365
:101A60007FF55EAEFFF77EFC401B64284FF003005D
:101A7000F4D940E720F480303060306820F48020D2
:101A80003060FFF76FFC0546306880033FF548AED5
:101A9000FFF768FC401B6428F6D9032002B0BDE8BC
:101AA000F08100BF206AB0F5803F05D17168A2685F
:101AB00021F40031114371607168626A21F474117C
:101AC00011430843706001203866FFF74BFC044661
:101AD000306880013FF565AFFFF744FC001B02282A
:101AE0004FF00300F4D906E7411E0020B0EB116F60
:101AF0001CBF012070474EF21002CEF2000251606E
:101B00004EF62351CEF20001F0230B7007219060B6
:101B100011607047704700007047000090F83C204B
:101B2000012A4FF0020236D010B580F83D2002683D
:101B3000D2F804E0D2F808C00C682EF070032343FA
:101B400040F2FF74C4F20004A24253600ADCB2F116
:101B5000804F13D040F20043C4F200039A420DD0EC
:101B600011E000BF42F60043C4F201039A4205D0DF
:101B700040F60003C4F200039A4204D149682CF0F5
:101B80008003194391600121002280F83D1080F804
:101B90003C20BDE81040104670470000002804BFFC
:101BA0000120704710B590F83D1031B9002180F840
:101BB0003C10044600F070F82046022180F83D10E9
:101BC000016840F2FF740B68C4F2000442F6004C56
:101BD000A142C4F2010C15DCB1F1804F1AD040F2E1
:101BE0000042C4F20002914214D0A14218DCB1F1CB
:101BF000804F1DD040F20042C4F20002914217D043
:101C00001AE000BF614505D040F60002C4F20002B0
:101C10009142EAD1826823F070031343A142E6DDCA
:101C2000614505D040F60002C4F20002914203D1A2
:101C3000026923F440731343846923F08002D0F8CF
:101C400004E0C368224361450A60CB62C1F828E022
:101C500002D14269CCF8302001224A610B69DB07CE
:101C600003D00B6923F001030B6180F8462080F854
:101C70003E2080F83F2080F8402080F8412080F806
:101C8000422080F8432080F8442080F8452080F8E6
:101C90003D20002010BD00000068B0F1804F18BF4B
:101CA000704780B582B041F21C00C4F202000168A6
:101CB000002241F0010101600068002100F00100F4
:101CC000019001981C20FFF7CDFB1C2002B0BDE85D
:101CD0008040FFF7B5BB000090F83D1001291CBF04
:101CE00001207047022180F83D10006840F2FF7229
:101CF000C168C4F20002904241F00101C16009DCF8
:101D0000B0F1804F12D040F20041C4F2000188428D
:101D10000CD012E042F60041C4F20101884205D025
:101D200040F60001C4F20001884206D1816801F04A
:101D30000701062904BF00207047016841F0010136
:101D400001600020704700000146006841F2111355
:101D5000C26822F00102C260026A1A4204D0012263
:101D6000002081F83D207047026A40F244431A4245
:101D7000F5D1026822F0010202600122002081F800
:101D80003D20704790F83C20012A4FF002026CD0B1
:101D900080B580F83D20D0F800C04FF67772DCF8AF
:101DA000083023EA0202CCF808200B684F2B29DC0C
:101DB0001F2B45DD202B46D0302B44D0402B40F04C
:101DC000AF80D1F804E0C968DCF82030DCF82020CE
:101DD00022F00102CCF82020DCF8182022F0F002DA
:101DE00042EA011123F00A0242EA0E02CCF818106E
:101DF000CCF82020DCF8081041F0470121F0300138
:101E000028E000BF6F2B33DDB3F5005F74D0B3F56E
:101E1000805F21D0702B40F08380D1E901E3C96855
:101E2000DCF8082043EA0E0322F47F4243EA012152
:101E30001143CCF80810DCF8081041F0770109E0F4
:101E40000BB1102B6CD1DCF8081021F07001194394
:101E500041F00701CCF808100022012180F83D1064
:101E6000002180F83C10BDE880401046704700BF5C
:101E7000502B21D0602B53D1D1F804E0C968DCF895
:101E80002030DCF8202022F01002CCF82020DCF8F2
:101E9000182022F4704242EA013123F0A00242EA03
:101EA0000E12CCF81810CCF82020DCF8081041F005
:101EB000670121F01001CDE7D1F804E0C968DCF832
:101EC0002030DCF8202022F00102CCF82020DCF8C1
:101ED000182022F0F00242EA011123F00A0242EA3D
:101EE0000E02CCF81810CCF82020DCF8081041F0D5
:101EF000570121F02001ADE7D1E901E3C968DCF821
:101F0000082043EA0E0322F47F4243EA01211143F1
:101F1000CCF80810DCF8081041F480419AE700BFC3
:101F200001229AE77047000070B504460068C56852
:101F30000669B10716D515F0020113D06FF0020142
:101F40000161012121778069800703D02046FFF7D6
:101F5000E9FF05E0204600F08FF8204600F08EF8FB
:101F600000202077700719D515F0040016D02068DE
:101F70006FF00401016102212177806910F4407F34
:101F800004D02046FFF7CEFF06E000BF204600F059
:101F900073F8204600F072F800202077300717D53C
:101FA00015F0080014D020686FF0080101610421C9
:101FB0002177C069800703D02046FFF7B3FF05E013
:101FC000204600F059F8204600F058F8002020770D
:101FD000F00619D515F0100016D020686FF010012A
:101FE000016108212177C06910F4407F04D02046A8
:101FF000FFF798FF06E000BF204600F03DF82046BE
:1020000000F03CF800202077F00718BF15F0010021
:1020100002D1300609D412E020686FF0010101619D
:10202000204600F02DF8300609D515F0800006D0C6
:1020300020686FF0800101612046FFF76BFD70069C
:1020400009D515F0400006D020686FF0400101610D
:10205000204600F027F8B00658BF70BD15F02000EC
:1020600008D021686FF0200220460A61BDE8704068
:10207000FFF752BD70BD00007047000070470000C0
:102080000068B0F1804F18BF704740F2DC40C2F2E8
:102090000000016800291ABF0168013900210160B0
:1020A0007047000070470000704700007047000054
:1020B000B0B582B001680A68CC684B6902F02F05A0
:1020C000202D04F0200505D125B102B0BDE8B040B7
:1020D00002F03ABB5FEA027C1EBF03F0010E04F47B
:1020E000907313EB0E0341D1036BD50618D5012B6A
:1020F00016D114F0100313D0002201920A68019245
:102100004A680192019A496949064BD4818DC28D72
:10211000C38D002B18BF914240F0F48102B0B0BDD6
:1021200013062DD514F080032AD090F84120212ADF
:10213000F4D18268B2F5805F03D10269002A00F011
:102140006782026A531C036212784A60C28C013AA9
:102150001304C284E2D1C86820F08000C860C86857
:1021600040F04000C86002B0B0BD00BFD30718BF48
:1021700014F4807340F0D080530700F1D380D8E08E
:102180005206CBD514F04002C8D0CA6822F04002F3
:10219000CA60202180F8411002B0BDE8B04000F0D4
:1021A000C1BC00BFC16B0A68526893B2002BB5D0A6
:1021B000858DAB42B2D2C2858969202900F0A18009
:1021C000016851E8031F026821F4807142E803139B
:1021D000DBB1016851E8031F026821F4807142E815
:1021E000031393B1016851E8031F026821F4807161
:1021F00042E803134BB1016851E8031F026821F460
:10220000807142E80313002BDAD1016851E8051F01
:10221000026821F0010142E80513C3B3016851E8E7
:10222000051F026821F0010142E805137BB3016834
:1022300051E8051F026821F0010142E8051333B39C
:10224000016851E8051F026821F0010142E8051309
:10225000002BDAD11BE000BF016851E8051F0268BE
:1022600021F0400142E80513DBB1016851E8051F88
:10227000026821F0400142E8051393B1016851E87A
:10228000051F026821F0400142E805134BB10168C7
:1022900051E8051F026821F0400142E80513002BB8
:1022A000DAD1202180F8421000210163016851E851
:1022B000031F026821F0100142E80313DBB101683B
:1022C00051E8031F026821F0100142E8031393B1A3
:1022D000016851E8031F026821F0100142E803136E
:1022E0004BB1016851E8031F026821F0100142E878
:1022F0000313002BDAD1C16B04460846FEF78AFEB1
:10230000204602214163818DC28D891A89B202B0B3
:10231000BDE8B040FFF7C8BE436C43F0010343641F
:10232000530706D5BEF1000F03D0436C43F0020300
:102330004364930706D5BEF1000F03D0436C43F00E
:1023400004034364BCF1000F06D55EEA050303D025
:10235000436C43F008034364436C002B3FF4DEAE50
:10236000920605D525B1044602F0EEF92168204613
:102370004969426C01F0400102F00802891800F03E
:10238000B98000BF016851E8031F026821F4907111
:1023900042E80313BBB3016851E8031F026821F44C
:1023A000907142E8031373B3016851E8031F026898
:1023B00021F4907142E803132BB3016851E8031F25
:1023C000026821F4907142E80313002BDAD11AE07D
:1023D000016851E8051F026821F0010142E8051378
:1023E000DBB1016851E8051F026821F0010142E8F4
:1023F000051393B1016851E8051F026821F001013E
:1024000042E805134BB1016851E8051F026821F04D
:10241000010142E80513002BDAD1016B012924D117
:10242000016851E8031F026821F0100142E803131C
:10243000DBB1016851E8031F026821F0100142E896
:10244000031393B1016851E8031F026821F01001E2
:1024500042E803134BB1016851E8031F026821F001
:10246000100142E80313002BDAD1202180F842103A
:102470000021016301684969490640F1C380016890
:1024800051E8051F026821F0400142E80513DBB165
:10249000016851E8051F026821F0400142E8051378
:1024A00093B1016851E8051F026821F0400142E83C
:1024B00005134BB1016851E8051F026821F0400186
:1024C00042E80513002BDAD1C16B002900F09A8095
:1024D00044F23D72C0F60002044608464A63FEF725
:1024E000BDFD00283FF41AAEE06B416B02B0BDE8C1
:1024F000B04008470446FFF7D9FD0020606402B0F1
:10250000B0BD00BF891A00BF026852E8032F0368FC
:1025100022F4907243E80325BDB3026852E8032F0A
:10252000036822F4907243E8032575B3026852E809
:10253000032F036822F4907243E803252DB3026849
:1025400052E8032F036822F4907243E80325002D1C
:10255000DAD11AE0026852E8052F036822F001027E
:1025600043E80525DDB1026852E8052F036822F033
:10257000010243E8052595B1026852E8052F03687A
:1025800022F0010243E805254DB1026852E8052F0B
:10259000036822F0010243E80525002DDAD120224C
:1025A00080F8422000220263026852E8032F036889
:1025B00022F0100243E80325DDB1026852E8032F40
:1025C000036822F0100243E8032595B1026852E83F
:1025D000032F036822F0100243E803254DB102687F
:1025E00052E8032F036822F0100243E80325002D70
:1025F000DAD1022289B2426302B0BDE8B040FFF7EF
:1026000053BD00BF02B0BDE8B040FFF74FBD00BFF3
:10261000026A32F8023B6FF35F234B60026295E57A
:10262000002804BF0120704710B5044690F841000F
:1026300028B9002084F84000204600F063F82420E8
:1026400084F841002068D4E90212C36823F40053DF
:10265000C360036923F440531A430261D4E904239D
:102660001143C268194341F20C639A431143C1609C
:102670004169A26921F44071114343F60002C4F29A
:1026800001029042416103D0FFF706F802E000BF6B
:10269000FFF716F8D4E90023192148439900B0FB4D
:1026A000F1F048F21F5CC5F2EB1CA0FB0C314FF6B9
:1026B0009C734909C0F6FF7301FB0300322303EB4F
:1026C0000010A0FB0C03F02000EA531000EB0110F7
:1026D000C3F34311084490601069202120F4904016
:1026E0001061506920F02A005061D06840F4005019
:1026F000D0600020606484F8411084F84210606368
:1027000010BD000070B586B0006844F60001C4F248
:102710000001002688420596CDE90366029641D065
:1027200043F60001C4F20101884240F0938041F277
:102730001800C4F20200016840F6000441F4804130
:1027400001600168C4F2010401F480410191019922
:10275000016802AD41F0040101600068294600F003
:102760000400019001984FF4007002900220039041
:10277000032005902046FEF7E1FC4FF480600290B4
:102780000020CDE9030020462946FEF7D7FC25208E
:1027900000210022FEF766FE2520FEF751FE06B05E
:1027A00070BD00BF41F21800C4F20200416802ADE2
:1027B00041F480214160416801F480210191019937
:1027C000016841F0080101600068294600F0080036
:1027D000019001984FF48060029002200390032042
:1027E000059040F60000C4F2010000F58064204628
:1027F000FEF7A4FC4FF40060CDE90206204629460E
:102800000496FEF79BFC272000210022FEF72AFEFB
:102810002720FEF715FE40F23006C2F2000606F150
:10282000240006F10C0440F265723060C2F200022E
:1028300020464FF4FA7101F08FFC06F1180540F2C2
:102840007052C2F2000228464FF4FA7101F084FC83
:10285000C6E9014506B070BD90F84230202B07D183
:1028600000294FF0010318BF002A05D11846704710
:1028700002231846704700BF0023036381622221B0
:102880008285C285436480F842100169006819B1ED
:10289000C16841F48071C160416941F00101416149
:1028A000C16841F02001C1601846704770B544F618
:1028B00000050446C4F20005006805F57041884231
:1028C0004DD140F21806C2F2000640F22850711CA9
:1028D000C2F200000122FFF7BFFF717840F2090049
:1028E000FF29C2F2000003D10022B27002702FE073
:1028F0000278F12908BF002A0ED0F22908BF002A69
:1029000010D0F32908BF002A1AD0032A1AD0022AAD
:102910000AD0012A02D01BE001220270B278B3185B
:10292000033312E00222027040F2D80CB278C2F2F5
:10293000000C01238CF80030B3180B3305E000BF06
:1029400003220270B278B318073301321970B270E3
:10295000FC2903D10021B170FF2101702068A84239
:1029600018BF70BD40F2180440F25400C2F20004D7
:10297000C2F2000021460122FFF76EFF40F2300054
:10298000C2F2000080682178BDE8704001F02CBCE4
:102990002DE9F04381B0044690F84100202809D188
:1029A00000294FF0010018BF002A07D101B0BDE88F
:1029B000F08300BF022001B0BDE8F0830020606416
:1029C00021201D460E4684F841001746FEF7CAFC3A
:1029D000A784E784A1688146B1F5805F02D12069B0
:1029E00000285DD037460020E28C2168002A5DD0A7
:1029F0006A1C24D0002D4AD0804600BF086800061B
:102A000008D4FEF7AFFCA0EB0900A8427AD82168F1
:102A1000C868F3E717B117F8010B04E038F8020BA8
:102A200000276FF35F204860E08C0138E084E08C81
:102A30000028E3D13AE000BF0A68120609D40A6808
:102A4000120606D40A6812065CBF0A685FEA0262D0
:102A5000F2D51FB117F8012B05E000BF30F8022BAB
:102A600000276FF35F224A60E28C013AE284E28C35
:102A7000002AE4D11AE000BF30F8022B00276FF3E0
:102A80005F224A60E28C013AE284E28C72B10A6809
:102A9000120635D5002FEFD017F8012BF1E700BF54
:102AA00000273046E28C2168002AA1D10868400640
:102AB0001ED42DB3681C14D1086840062AD40868B7
:102AC000400627D40868400624D4086840064FF022
:102AD0000000F1D50DE000BF2068C1680068400625
:102AE00018D4FEF73FFCA0EB0900A842F4D909E096
:102AF0000020202184F8411001B0BDE8F08300BF20
:102B0000FEF730FC0320202184F8411001B0BDE81D
:102B1000F08300BF0020202184F8411001B0BDE8FF
:102B2000F083000070470000FEE700002DE9F0414F
:102B300086B0002641F21800CDE90466CDE90266B0
:102B4000C4F20200016840F6000441F02001016077
:102B50000168C4F2010401F02001019101990168AA
:102B6000002241F00401016001684FF0300801F0DB
:102B7000040101910199016841F0080101600068B8
:102B8000302100F00800019001982046FEF7E4FB98
:102B900002AD012720462946CDE902760497FEF7CB
:102BA000CDFA1120CDE903070220059020462946E1
:102BB000CDF80880FEF7C2FA40F2233002A9C1C165
:102BC00004F580602946FEF7B9FA06B0BDE8F08149
:102BD00080B586B040F2E0400021C2F200004FF024
:102BE0008042472340F2E73C0591CDE90311CDE94E
:102BF0000011C0E90023C0E9021C01618161FEF7F8
:102C0000CDFF002818BFFDF7CDFF4FF48050029094
:102C100040F2E040C2F2000002A9FFF7B3F800283A
:102C200018BFFDF7BFFF40F2E040C2F20000694666
:102C3000FEF774FF002818BFFDF7B4FF06B080BD93
:102C400080B540F2285043F60001C2F20000C4F201
:102C5000010100234FF00C0C4FF4E13280E80E002C
:102C6000C0E90333C0E905C3C361FFF7D9FC0028FD
:102C700008BF80BDBDE88040FDF794BF80B540F23D
:102C8000300044F60001C2F20000C4F2000140F836
:102C9000241F4FF4E13100220C23C0E90112C0E9E6
:102CA0000322C0E90532C261FFF7BAFC002808BF61
:102CB00080BDBDE88040FDF775BF0000FEE7000065
:102CC0002DE9F04182B040F20800C2F20000007825
:102CD000002840F0E180FEF71FF940F29C0702282F
:102CE000C2F2000704D13878B0FA80F04009387099
:102CF000FEF712F940F210080328C2F2000812D1C0
:102D0000387880B978684FF07F51FDF72BFA02468A
:102D1000D8F80000002664250321C8237A60CDE995
:102D20000056FEF759F8FEF7F7F8042813D1387863
:102D300088B978680021CBF6C071FDF713FA024616
:102D4000D8F80000002664250321C8237A60CDE965
:102D50000056FEF741F8FEF7DFF8032813D1387864
:102D6000012810D1B8684FF07F51FDF7FBF90246FA
:102D7000D8F80000002664250021C823BA60CDE9F8
:102D80000056FEF729F8FEF7C7F8042814D1387862
:102D9000012811D1B8680021CBF6C071FDF7E2F926
:102DA0000246D8F80000002664250021C823BA6036
:102DB000CDE90056FEF710F8FEF7AEF8052820D151
:102DC000D8F8000007F10C020321FDF7F1FE052001
:102DD00001F092FCD8F8000007F110020021FDF785
:102DE000E7FE052001F088FC7878D7E9031207EBAD
:102DF00080030130D961C1B2DA62032988BF0020A3
:102E00007870FEF789F8062846D1D7E90704D7E994
:102E10000915FDF7A7F9064620462946FDF7A2F950
:102E200001463046FDF79EF94FF07A51FDF7F2F971
:102E30000446F86A796B7C61FDF794F93A6BB96BDB
:102E400005461046FDF78EF901462846FDF78AF93A
:102E50004FF07A51FDF7DEF9D8F80010B86100257F
:102E60006426084603212246C823CDE90065FDF704
:102E7000B3FF052001F040FCD8F80000BA6900213A
:102E8000C823CDE90065FDF7A7FF052002B0BDE826
:102E9000F04101F031BC00BF02B0BDE8F08100009C
:102EA000B0B540F20800C2F200000078032853D108
:102EB00040F60044C4F20104FEF72EF840F2D805B3
:102EC0000528C2F2000512D1287880B920460121D8
:102ED000FEF73CFA0028F9D00120287040F2285073
:102EE000C2F200001DA101223223FFF751FDFEF7BF
:102EF00013F8052813D12878012810D10220287052
:102F000020460121FEF722FA0028F9D040F228508D
:102F1000C2F2000012A101223223FFF739FDFDF7B2
:102F2000FBFF052818D12878022818BFB0BD002063
:102F3000287000BF20460121FEF708FA0028F9D0CA
:102F400040F22850C2F2000006A101223223BDE85F
:102F5000B040FFF71DBD00BFB0BD00BF3200000094
:102F60003000000033000000F0B581B040F20804EA
:102F7000C2F200042078092806D0FDF7CDFF012811
:102F800021D001B0F0BD00BF40F21005C2F2000533
:102F900040F29C062868C2F20006321D0321032776
:102FA000FDF706FE052001F0A7FB286806F10802E0
:102FB0000021FDF7FDFD052001F09EFB2770FDF7C8
:102FC000ABFF0128DDD120780130207000F00AF835
:102FD0002078042804BF0020207001B0F0BD00005C
:102FE000FEE7000080B540F2DC00C2F200004FF4C2
:102FF0008061FDF79EF880BDB0B540F60004C4F2D4
:1030000001040546C20920462021FEF7A5F9204605
:1030100010210122FEF7A0F9204610210022FEF720
:103020009BF9C5F3801220462021FEF795F9204632
:1030300010210122FEF790F9204610210022FEF710
:103040008BF9C5F3401220462021FEF785F9204672
:1030500010210122FEF780F9204610210022FEF700
:103060007BF9C5F3001220462021FEF775F92046B2
:1030700010210122FEF770F9204610210022FEF7F0
:103080006BF9C5F3C00220462021FEF765F9204602
:1030900010210122FEF760F9204610210022FEF7E0
:1030A0005BF9C5F3800220462021FEF755F9204642
:1030B00010210122FEF750F9204610210022FEF7D0
:1030C0004BF9C5F3400220462021FEF745F9204682
:1030D00010210122FEF740F9204610210022FEF7C0
:1030E0003BF905F0010220462021FEF735F9204684
:1030F00010210122FEF730F9204610210022FEF7B0
:103100002BF9204610210122FEF726F92046102136
:103110000022BDE8B040FEF71FB9000010B540F630
:103120000004C4F20104204610210122FEF714F924
:10313000204620210122FEF70FF9AE2000F01CFEF0
:10314000D52000F019FE802000F016FEA82000F027
:1031500013FE3F2000F010FED32000F00DFE0020F3
:1031600000F00AFE402000F007FEA12000F004FE5F
:10317000C82000F001FEDA2000F0FEFD122000F071
:10318000FBFD812000F0F8FDCF2000F0F5FDD920F7
:1031900000F0F2FDF12000F0EFFDDB2000F0ECFD8F
:1031A000302000F0E9FDA42000F0E6FDA62000F0AC
:1031B000E3FD8D2000F0E0FD142000F0DDFDAF20E8
:1031C00000F0DAFD40F2DC00C2F200004FF4806152
:1031D000FCF7AFFFBDE8104000F0F6BBF0B5C1B0A2
:1031E00001AF14460D46064646AA384619460092D7
:1031F00001F0B2FB304629463A46234600F0F4FA85
:1032000041B0F0BD2DE9F04F89B0002B009208903D
:103210007AD0009803EB0108002863D0089A40F2A6
:10322000DC0E86184FF0010CC2F2000E0C468946E7
:1032300006E000BF09F101090FFA89F4A04563DD3A
:103240001FFA89F2402A089A0CD209F00702089D59
:103250000CFA02F2E4086FEA020A0EEBC4172A46DF
:1032600016E000BF541C24B2A642E3DD941C24B235
:10327000A642DFDDD41C24B2A642DBDD043214B248
:10328000A642EFDCD6E700BF04352AB29642D1DD74
:10329000ACB27F2C03D8BC5C04EA0A04BC546C1C9E
:1032A00022B29642C6DDA4B27F2C03D8BC5C04EAED
:1032B0000A04BC54AC1C22B29642BBDDA4B27F2CE3
:1032C00003D8BC5C04EA0A04BC54EC1C22B296424B
:1032D000B0DDA4B27F2CD7D8BC5C04EA0A04BC548D
:1032E000D2E700BF0A4600BF571C3FB2B8450BDD0E
:1032F000971C3FB2B84507DDD71C3FB2B84503DD88
:10330000043217B2B845EFDC5A1EDDF800A002EB1C
:103310005272BAF1000F4FEAE20700F04D8201EB62
:103320005172D31022F0070203EBE13008238A1A0E
:10333000029003EA11310AF003000A44059040F2BA
:10334000DC010898C2F200011FFA82FBC2F10802F8
:1033500001441FFA82F80AF0FC0C019100220021BE
:103360000397CDF81CC00CE017783B43137000BFE7
:103370000699039F0131CAB2DDF81CC09742C0F222
:1033800030820691CBB212990AFB0319029B02FB11
:103390000A119E18082E06F1010204917AD2082A19
:1033A00080F0C880BAF1040F80F008814FF0000C63
:1033B0000599DDF800A00029DAD00CEB00037F2B83
:1033C0001BD8049940F2DC0EC2F2000E14460A46E5
:1033D00011F80C7031460EEBC616F55C07FA0BF7C8
:1033E0002F43F75412F80C700EEBC416F55C27FA55
:1033F00008F72F432246F7540E4605990129B7D006
:103400000CF101073B187F2B21D804981446024683
:1034100010F807E040F2DC00C2F2000000EBC61535
:1034200015F8039031460EFA0BF646EA0906EE54FB
:1034300040F2DC06C2F20006D75D06EBC416F55C6E
:1034400027FA08F708982F432246F7540E460599A5
:1034500002298DD00CF102031F187F2F88D8049801
:1034600040F2DC01C2F2000110F803C001EBC61506
:1034700015F807E00CFA0BF646EA0E06144602466B
:10348000EE55D35C089801EBC41223FA08F33A44D2
:103490006AE700BF072A3FF66BAF9446BAF1040F04
:1034A00080F000810025059900293FF461AF2B18B9
:1034B00062467F2B10D8049810F805C040F2DC005B
:1034C000C2F2000000EBC21616F803E02CFA08F76F
:1034D000089847EA0E07F754059901293FF448AFC9
:1034E0006F1C3B187F2B10D8049810F807C040F2CF
:1034F000DC00C2F2000000EBC21616F803E02CFA62
:1035000008F7089847EA0E07F754059902293FF48F
:103510002FAFAB1C1F187F2F3FF62AAF0499CB5C4F
:1035200040F2DC01C2F2000101EBC21223FA08F3FF
:103530003A4419E7BAF1040F80F00281B64600233D
:10354000059900293FF414AF1A187F2A0CD8049962
:10355000CF5C40F2DC01C2F2000101EBCE16B55C9B
:1035600007FA0BF72F43B754059901293FF400AF31
:103570005F1C3A187F2A0CD80499CF5D40F2DC0119
:10358000C2F2000101EBCE16B55C07FA0BF72F4330
:10359000B754059902293FF4EBAE02331A187F2A7B
:1035A0003FF6E6AE0499CB5C40F2DC01C2F20001CA
:1035B00001EBCE1703FA0BF33A44D5E601994FF02D
:1035C000000C01EBC61506E007980CF1040C6045F1
:1035D00008983FF4EDAE00EB0C037F2B05EB0C0AD3
:1035E0000CD9591C7F2909EB0C0E1ED9991C7F2977
:1035F00030D9D91C7F29E7D841E000BF19F80C1059
:1036000015F80C7001FA0BF1394305F80C1019F894
:103610000C109AF8807021FA08F139438AF880106A
:10362000591C7F2909EB0C0EE0D89EF801109AF87E
:10363000014001FA0BF121438AF801109EF80110B4
:103640009AF8814021FA08F121438AF88110991CE7
:103650007F29CED89EF802109AF8024001FA0BF1A9
:1036600021438AF802109EF802109AF8824021FA4B
:1036700008F121438AF88210D91C7F29A4D89EF82A
:1036800003109AF8033001FA0BF119438AF803107A
:103690009EF803109AF8833021FA08F119438AF84A
:1036A000831091E70199079A01EBC613002503E007
:1036B0000435AA423FF4F7AE47197F2F0AD9791C87
:1036C0007F2914D9B91C7F291FD9F91C7F29EFD86C
:1036D00029E000BF19F805105E1996F8804021FA1C
:1036E00008F1214386F88010791C7F29EAD809EB7C
:1036F000050149785E1996F8814021FA08F12143C5
:1037000086F88110B91C7F29DFD809EB050189787B
:103710005E1996F8824021FA08F1214386F882105A
:10372000F91C7F29C4D809EB0501C9785F1997F8FE
:10373000836021FA08F1314387F88310B8E700BFAE
:103740000199B64601EBC615002303E004339C45FE
:103750003FF4F6AEC2187F2A06D819F80370EE5C63
:1037600007FA0BF73743EF54571C7F2F09EB03067B
:1037700005EB030706D9911C7F290CD9D11C7F29A1
:10378000E4D811E071787C7801FA0BF1214379706B
:10379000911C7F29F2D8B178BC7801FA0BF1214352
:1037A000B970D11C7F29D1D8F178FA7801FA0BF1E0
:1037B0001143F970CAE700BF002000BF40F00101CB
:1037C000C9B28F420DDB40F00201C9B28F4208D36B
:1037D00040F00301C9B28F4203D30430C1B28F421B
:1037E000ECD209B0BDE8F08F2DE9F04F89B0154655
:1037F00012780591002A069000F0E2800DF11F0179
:10380000881C0490C81C45F2722A98460390081D33
:10381000C0F6000A4FF0250B00264FF00009029079
:1038200016E000BF069845F27531C0F6000130443D
:1038300001F1BA07059900B2062208230097FFF7A5
:10384000E1FC06361FFA89F02A5C002A00F0B880F5
:1038500050B2B0F1FF3F13DC02F0E000C02809F1E4
:10386000010029D002F0F001E02933D002F0F80184
:10387000F02943D081B26A5C8146002AE8D19FE0FA
:1038800000208DF820000698B8F1060F304400B2F1
:103890008DF81F2000F08080B8F1080F40F08C8078
:1038A00045F2AF51C0F6000101EB0211A1F500771E
:1038B0000599082210237CE080B2285C8DF81F2037
:1038C000002800F07D808DF82000049809F102099D
:1038D0002FE000BF80B2285C8DF81F2000286FD039
:1038E00009F1020189B2695C8DF82000002967D0D6
:1038F000039809F103098DF821101AE080B2285CC1
:103900008DF81F2000285BD009F1020189B2695CA3
:103910008DF82000002953D009F1030080B2285C03
:103920008DF8211000284BD08DF82200029809F163
:1039300004099AF8001000294FF00001017015D019
:103940000024574638460DF11F01FCF7FDFB48B136
:103950000134A0B200FB0BF11AF8011000FB0BA719
:103960000029EFD1B8F1060F05D15BE75746B8F152
:10397000060F3FF457AFB8F1080F7FF463AF069816
:1039800005993044053700B2102210230097FFF745
:1039900039FC103656E700BF02EB420145F27532A2
:1039A000C0F6000202EB4101A1F1C0070599062211
:1039B00008230097FFF726FC09F10109464441E777
:1039C00009B0BDE8F08F000010B5B02000F0D4F9C8
:1039D000102000F0D1F9002000F0CEF940F2DC0414
:1039E000C2F200042046802100F0FAF9B12000F074
:1039F000C3F9102000F0C0F9002000F0BDF904F177
:103A00008000802100F0ECF9B22000F0B5F9102020
:103A100000F0B2F9002000F0AFF904F580708021C9
:103A200000F0DEF9B32000F0A7F9102000F0A4F9AF
:103A3000002000F0A1F904F5C070802100F0D0F959
:103A4000B42000F099F9102000F096F9002000F061
:103A500093F904F50070802100F0C2F9B52000F060
:103A60008BF9102000F088F9002000F085F904F5AA
:103A70002070802100F0B4F9B62000F07DF910200C
:103A800000F07AF9002000F077F904F54070802109
:103A900000F0A6F9B72000F06FF9102000F06CF9E3
:103AA000002000F069F904F560708021BDE8104045
:103AB00000F096B92DE9F04182B040F20808C2F258
:103AC000000898F80070002F00F0B680012F40F039
:103AD000A48040F29C07C2F20007F869FCF7A8FD39
:103AE00045F6B434C0F6000406460D460120012117
:103AF00006222346CDE90065FFF770FBF86AFCF764
:103B000097FD06460D463020012106222346CDE9C9
:103B10000065FFF763FB386AFCF78AFD06460D4631
:103B200001200A2106222346CDE90065FFF756FB56
:103B3000386BFCF77DFD06460D4630200A21062233
:103B40002346CDE90065FFF749FB786AFCF770FD75
:103B500006460D460120142106222346CDE90065C4
:103B6000FFF73CFB786BFCF763FD06460D46302003
:103B7000142106222346CDE90065FFF72FFBB86A22
:103B8000FCF756FD06460D4601201E21062223465F
:103B9000CDE90065FFF722FBB86BFCF749FD06464F
:103BA0000D4630201E2106222346CDE90065FFF791
:103BB00015FB7868FCF73CFD06460D4601202821E0
:103BC00006222346CDE90065FFF708FBB868FCF73D
:103BD0002FFD06460D463020282106222346CDE93A
:103BE0000065FFF7FBFA45F6B1343F78C0F60004F4
:103BF00060202821062223460097FFF7EFFA40F2C3
:103C00001900C2F200000778012032210622234663
:103C10000097FFF7E3FA98F8007055A35A200021A7
:103C200006220097FFF7DAFAFFF7CEFE052002B072
:103C3000BDE8F04100F060BD40F29C07C2F2000711
:103C4000F869FCF7F5FC45F6B436C0F60006044604
:103C50000D460120012106223346CDE90045FFF73C
:103C6000BDFAF86AFCF7E4FC05460C463020012159
:103C700006223346CDE90054FFF7B0FA386AFCF764
:103C8000D7FC05460C4601200A2106223346CDE921
:103C90000054FFF7A3FA386BFCF7CAFC05460C4644
:103CA00030200A2106223346CDE90054FFF796FA68
:103CB000786AFCF7BDFC05460C460120142106225B
:103CC0003346CDE90054FFF789FA786BFCF7B0FC76
:103CD00005460C463020142106223346CDE9005417
:103CE000FFF77CFAB86AFCF7A3FC05460C460120F6
:103CF0001E2106223346CDE90054FFF76FFAB86B58
:103D0000FCF796FC05460C4630201E210622334661
:103D1000CDE90054FFF762FA7868FCF789FC0546A4
:103D20000C460120282106223346CDE90054FFF736
:103D300055FAB868FCF77CFC05460C463020282173
:103D400006223346CDE90054FFF748FA3F7845F69E
:103D5000B133C0F600036020282106220097FFF748
:103D60003DFA98F80070012F3FF4B3AE55E700BF5D
:103D70004D6F64653A256400B0B540F60004C4F2A6
:103D800001040546204620210122FDF7E5FA2046E0
:103D900010210122FDF7E0FA204620210022FDF744
:103DA000DBFA204610210022FDF7D6FA7820FFF733
:103DB00023F90020FFF720F92846FFF71DF92046D8
:103DC00020210022FDF7C8FA204610210122FDF72C
:103DD000C3FA204620210122BDE8B040FDF7BCBA5D
:103DE00070B540F60004C4F201040D4606462046B4
:103DF00020210122FDF7B0FA204610210122FDF713
:103E0000ABFA204620210022FDF7A6FA2046102119
:103E10000022FDF7A1FA7820FFF7EEF84020FFF727
:103E2000EBF83DB1013E00BF16F8010FFFF7E4F8D3
:103E3000013DF9D1204620210022FDF78DFA2046D0
:103E400010210122FDF788FA204620210122BDE839
:103E50007040FDF781BA0000704700008188C28879
:103E60008A422FBF501A0089511A084480B2704705
:103E70002DE9F04FB0F804E0C188714516D20389EE
:103E8000A1EB0E02D11889B291B1B0F808A00429B3
:103E900052441FFA82FB01F0030C21D200244FF0A0
:103EA0000009BCF1000F68D121E100BF714505D1C7
:103EB0004FF000095FFA89F0BDE8F08FA1EB0E0129
:103EC0001FFA81FAAAF1010103290AF0030C65D255
:103ED00000224FF00009BCF1000F40F0B98006E16C
:103EE00021F0030800214FF000090FE03A1DB2FB5A
:103EF000FAF707FB1A220768BF5C06EB09022244A7
:103F00000A44591C414507EB020931D00D46594579
:103F10000EEB010712D2791CB1FBFAF303FB1A1165
:103F200003685E5C691C59450CD300244B1C5B453F
:103F300012D3002101335B45D8D317E00026691C5A
:103F40005945F2D2BB1CB3FBFAF404FB1A330468E4
:103F5000E45C4B1C5B45ECD2F91CB1FBFAF202FBB2
:103F60001A110268515C01335B45BFD30027C4E7D7
:103F70002C1DBCF1000F00F0BA805C450EF101076A
:103F800078D23919B1FBFAF202FB1A110268515CBE
:103F9000BCF1010F894400F0AA8070E02AF0030808
:103FA00000214FF0000912E00EEB040203890432F5
:103FB000B2FBF3F505FB132203689A5C0BEB0903D4
:103FC00033443B440131414502EB03093CD00C46EC
:103FD000514517D20EEB040102890131B1FBF2F514
:103FE00005FB1211026812F801B0611C51450ED395
:103FF00000260131514517D3002701315145D3D354
:104000001FE000BF4FF0000B611C5145F0D20EEBDA
:10401000040206890232B2FBF6F707FB1622066895
:10402000B65C01315145E7D20EEB04020789033239
:10403000B2FBF7F303FB172203689F5C0131514584
:10404000B2D30022BAE700BF221DBCF1000F4ED050
:1040500052450EF1010621D20189B718B7FBF1F5DF
:1040600005FB11710768795CBCF1010F89443ED0F2
:1040700019E000BF0021BCF1010F894437D0611C59
:10408000594521D23944B1FBFAF202FB1A110268F8
:10409000515CBCF1020F894429D01AE00021BCF127
:1040A000010F894423D0511C51451BD2078931444B
:1040B000B1FBF7F505FB17110768795CBCF1020F3E
:1040C000894414D018E000BF0021BCF1020F8944DC
:1040D0000DD0A11C59451FD23944B1FBFAF202FBA5
:1040E0001A1112E00021BCF1020F894404D15FFAD9
:1040F00089F0BDE8F08F00BF911C51450CD20289B8
:104100003144B1FBF2F303FB12110068405C8144BF
:104110005FFA89F0BDE8F08F002081445FFA89F0F2
:10412000BDE8F08F8288C388934205D2B0F808C0FA
:104130009B1A634401E000BF9B1A9BB28B429CBF59
:1041400000207047114402890131B1FBF2F300688D
:1041500003FB1211405C70474FF0000C0131C0E9C5
:10416000002C8AB28A42018122D1002111E000BFD5
:104170000268CB1C0A4482F802C00289934228BF1D
:10418000704702680A4482F803C0028904319142F0
:104190000ED202684B1C02F801C00289934207D27A
:1041A00002688B1C0A4482F801C002899342DFD363
:1041B000704700008288C1881346B0F808C08A4260
:1041C00088BFA3EB0C039BB299424FF0000109D0CA
:1041D0000132B2FBFCF303FB1C2203688280985C73
:1041E000995401460846704710B5B0F804C0B0F8BD
:1041F00006E00389AEEB0C041A46E64528BF002210
:1042000014440134A4B2A34211D1ACEB020292B225
:1042100096450CD00CF10102B2FBF3F404FB13221F
:104220000368002482809C54B0F806E003890EF1F4
:104230000102B2FBF3F404FB13220368C280995419
:1042400010BD00008288C1881346B0F808C08A42B9
:1042500088BFA3EB0C039BB299424FF0000109D039
:104260000132B2FBFCF303FB1C2203688280985CE2
:10427000995401460846704710B5B0F804C0B0F82C
:1042800006E00389AEEB0C041A46E64528BF00227F
:1042900014440134A4B2A34211D1ACEB020292B295
:1042A00096450CD00CF10102B2FBF3F404FB13228F
:1042B0000368002482809C54B0F806E003890EF164
:1042C0000102B2FBF3F404FB13220368C280995489
:1042D00010BD0000002A08BF70472DE9F04702F02A
:1042E000030C4FF0000E042A4FF0000A7ED2BCF1FE
:1042F000000F77D08588C78804897A1B264611F875
:104300000AE0AF4228BF00263244013292B2944202
:104310000ED1AA1B92B297420AD06A1CB2FBF4F5E6
:1043200005FB1422046800258280A554C7880489EF
:104330007A1CB2FBF4F5BCF1010F05FB14220468F2
:10434000C28004F802E04DD08688C78805895144B0
:104350002B46BC1B4A78B74228BF00231C440134BB
:10436000A4B2A5420ED1F31A9BB29F420AD0731C8D
:10437000B3FBF5F7002607FB153307688380FE546F
:10438000C78805897B1CB3FBF5F7BCF1020F07FB5F
:1043900015330768C380FA5424D08788C3880689F8
:1043A000DD1B32468978BB4228BF00221544013507
:1043B000ADB2AE420ED1BA1A92B293420AD07A1C72
:1043C000B2FBF6F3002703FB1622036882809F549A
:1043D000C38806895A1CB2FBF6F303FB1622036856
:1043E000C2809954BDE8F047704700BF22F003082F
:1043F0000DE000BF721CB2FBF5F30AF1040A03FBE7
:1044000015220368D045C2809C543FF470AF878862
:10441000C6880022F41B11F80A900589BE4238BFF5
:104420002A4614440134A4B2A5420ED1BA1A92B25B
:1044300096420AD07A1CB2FBF5F404FB15220468FC
:10444000828004F802E0C6880589721CB2FBF5F48C
:1044500004FB15220468C28004F802908288C78891
:1044600001EB0A040025BB1A94F8019006899742D3
:1044700038BF35462B4401339BB29E420ED1531BAD
:104480009BB29F420AD00132B2FBF6F303FB162225
:104490000368828003F802E0C78806897A1CB2FBB1
:1044A000F6F3002503FB16220368C28003F802908E
:1044B0008288C78894F80290BB1A0689974238BF51
:1044C00035462B4401339BB29E420ED1531B9BB207
:1044D0009F420AD00132B2FBF6F303FB16220368B7
:1044E000828003F802E0C78806897A1CB2FBF6F3E3
:1044F000002703FB16220368C28003F8029082881B
:10450000C688E478B31A0589964238BF2F463B44E3
:1045100001339BB29D427FF46DAFD31B9BB29E4291
:104520003FF468AF0132B2FBF5F303FB15220368D9
:10453000828003F802E0C68805895BE7B0B5B0F871
:1045400004E0C5880024A5EB0E020389754538BF39
:104550001C462244013292B293424FF0000C10D11B
:10456000AEEB040292B295420BD00EF10102B2FB07
:10457000F3F505FB13220368002582809D54C5884E
:1045800003896A1CB2FBF3F505FB13220368C280A2
:1045900099548288B0F806E00389AEEB0204964590
:1045A00038BF9C4664440134A4B2A34210D1A2EBAC
:1045B0000C05ADB2AE450BD00132B2FBF3F505FBF5
:1045C00013220368002582809D54B0F806E0038919
:1045D0000EF10102B2FBF3F5090A05FB1322036891
:1045E000C2809954B0BD0000B0B5B0F804E0C588F1
:1045F0000024A5EB0E020389754538BF1C462244F2
:10460000013292B293424FF0000C10D1AEEB040293
:1046100092B295420BD00EF10102B2FBF3F505FB0D
:1046200013220368002582809D54C58803896A1C73
:10463000B2FBF3F505FB13220368C280995482880C
:10464000B0F806E00389AEEB0204964538BF9C46FD
:1046500064440134A4B2A34210D1A2EB0C05ADB264
:10466000AE450BD00132B2FBF3F505FB1322036814
:10467000002582809D54B0F806E003890EF1010206
:10468000B2FBF3F5090A05FB13220368C2809954B3
:10469000B0BD000070470000FCF76ABE7047000024
:1046A00040F2E040C2F20000FDF73EBC81B0009055
:1046B000009940F2DC42C2F2000240F2E040C2F255
:1046C0000000116001B0FDF707BB000040F2DC41C3
:1046D00040F2E040C2F200010022C2F200000A6093
:1046E000FDF732BB40F2DC40C2F200000068B0FAD5
:1046F00080F040097047000010B582B00190019829
:1047000040F2DC44C2F20004206040F2E040C2F219
:104710000000FDF7E1FA00BF206830B1206820B149
:10472000206810B120680028F6D140F2E040C2F2C3
:10473000000002B0BDE81040FDF706BB406A002152
:10474000C185C184FDF7B2BC81B090F84210222926
:1047500021D183680246B3F5805F09D152F8281F42
:1047600052F8183C002B63D003685B680AE000BF76
:1047700052F8281F13B90369002BF5D003685B6852
:1047800003F07F030B70116801311160C18D013995
:104790000A04C18502D001B0704700BF0168CA6831
:1047A00022F02002CA60CA6822F48072CA604A6994
:1047B00022F001024A61202180F842100021416369
:1047C000026B012A3CD10163016851E8031F0268B2
:1047D00021F0100142E80313DBB1016851E8031F27
:1047E000026821F0100142E8031393B1016851E817
:1047F000031F026821F0100142E803134BB1016866
:1048000051E8031F026821F0100142E80313002B56
:10481000DAD101680A68D20606D5002200920A6839
:104820000092496800910099818D01B0FDF73CBC70
:10483000026852686FF35F2221F8022B8162A5E7BC
:1048400001B0FEF733B8000040F22850C2F2000079
:10485000FDF72EBC40F25400C2F20000FDF728BC68
:10486000FEE70000B0B582B004464068FFF7F6FAF4
:10487000A0B10DF1070500BF6068FFF79BFC216840
:104880008DF807000846294601224FF0FF33FEF756
:104890007FF86068FFF7E2FA0028EDD102B0B0BD02
:1048A00090B0FCF773FD00240120CDE90B44CDE965
:1048B000094406900A904FF4E0104FF4803102252D
:1048C0000F9006A8CDE90714CDE90D51FCF70CFFB8
:1048D00020B1EFF3108072B6FEE700BF0F20CDE9E4
:1048E00001054FF48060CDE9040401A8022103947E
:1048F000FCF7F4FD20B1EFF3108072B6FEE700BFC5
:10490000FEF714F9FEF764F9FEF7B8F9FEF798F927
:1049100040F2E040C2F20000FDF7DEF940F2180478
:1049200040F25400C2F20004C2F20000214601220B
:10493000FDF792FF40F22850611CC2F200000122F4
:10494000FDF78AFF4FF47A70FFF7D6FEFEF7E6FB1D
:10495000FBF7F2FFFCE7000037B514460846064BAC
:104960006A46214600F0DCF804466946002000F063
:104970006EFC20463EBD00004F52000802E008C811
:10498000121F08C1002AFAD170477047002001E0C9
:1049900001C1121F002AFBD1704700002DE9FF5F03
:1049A00082B00021DDE90430020DDDF840B00343A0
:1049B00018D044F61050A2F2FF3242431514119859
:1049C00001281FD0A5EB0B00401C5FEA000A4FF046
:1049D00000064E4FDFF83891B046504615D5CAF163
:1049E000000413E0119801244AA3012801D16FEAC1
:1049F0000B010298119AC0E90031C0E9024206B0E9
:104A0000BDE8F09FCBF10000DFE704460021404AFB
:104A1000491842EB0450CDE9001012E0E00707D03E
:104A200032463B4640464946FBF7CDFC8046894628
:104A300032463B4610461946FBF7C5FC06460F4674
:104A40006410002CEAD1DDE90401DDE90023BAF1AC
:104A5000000F06DAFBF7B7FC42464B46FBF7B3FC08
:104A600005E0FBF722FD42464B46FBF71EFD0446E0
:104A70000E460022284BFBF72FFF03D84FF0FF30E4
:104A8000014607E00022254B20463146FBF7F4FBA8
:104A9000FBF709FF102409E0002C0ADB0A2200239F
:104AA000FBF70BFE039B30321A55641E50EA0102DD
:104AB000F2D1641C039AC4F111031444119A012A1F
:104AC00003D0012208430DD10AE0084304D000209E
:104AD0004FF0110B119072E7A3EB0B056D1E0DE06B
:104AE0005B4504DD4FF0000205F1010504E003DA47
:104AF0004FF00002A5F10105002AECD002981199AF
:104B0000C0E90231C0E9004579E700000000144027
:104B10000000F03F300000000000F0430000E03FE4
:104B20002DE9FF4F95B09B468946064600250FE2CA
:104B3000252877D100242746F84A0121059400E072
:104B4000044316F8013F203B01FA03F01042F7D16D
:104B500030782A2811D06FF02F033078A0F130027E
:104B6000092A16D8059A44F0020402EB820203EBEC
:104B700042021044761C0590EFE759F8042B059289
:104B8000002A03DA504244F40054059044F0020431
:104B9000761C30782E2816D116F8010F44F0040444
:104BA0002A280DD06FF02F023078A0F13003092BA6
:104BB00009D807EB870302EB4303C718761CF3E71A
:104BC00059F8047B761C30786C280FD006DC4C2812
:104BD00017D068280DD06A2814D104E0742810D0AA
:104BE0007A280FD10DE044F400140AE044F4801454
:104BF00001E044F440147278824202D104F580143A
:104C0000761C761C307866280BD013DC582877D0B9
:104C100009DC002875D04528F6D04628F4D047286E
:104C20001AD19DE118E0632835D0642879D0652831
:104C300012D195E1702873D008DC6728F1D069287B
:104C40006FD06E280DD06F2806D1B5E073282CD018
:104C5000752875D0782874D05A46179990476D1CDE
:104C600075E1C4F30250022809D003280DD0D9F809
:104C7000001004280DD00D6009F1040967E1D9F88E
:104C80000010EA17C1E90052F6E7D9F800100D80CC
:104C9000F2E70D70F0E719F8041B8DF80010002002
:104CA0008DF80100EA46012003E059F804AB4FF00B
:104CB000FF3061074FF0000102D40DE008F101015F
:104CC0008846B9420FDA8045F8DB1AF80810002947
:104CD000F4D108E008F1010188468142FADB1AF8B4
:104CE00008100029F6D105985B46A0EB080721467D
:104CF0003846179A00F094FA284400EB080507E0BC
:104D00004DE029E10DE01AF8010B5A46179990473A
:104D1000B8F10108F7D25B4621463846179A13E1ED
:104D200042E00A220092C4F302524FF0000A022A23
:104D300008D059F804CB032A4FEAEC710AD00DE0F1
:104D400029E02AE009F1070121F00702F2E802C197
:104D5000914609E00FFA8CFC4FEAEC71042A03D16A
:104D60004FFA8CFC4FEAEC71002907DA0A46002161
:104D7000DCF1000C61EB02012D2202E0220504D5DA
:104D80002B228DF80420012203E0E20701D020222B
:104D9000F7E7904659E00A2102E010220DE01021C9
:104DA0004FF0000A00910BE010224FF0000A44F08F
:104DB00004040827009203E008224FF0000A009242
:104DC000C4F30252022A05D059F804CB0021032A69
:104DD00008D009E009F1070121F00702F2E802C159
:104DE000914605E01FFA8CFC042A01D10CF0FF0C5F
:104DF0004FF00008220728D5702806D0009B83F0CA
:104E0000100353EA0A0305D00EE040228DF8042077
:104E1000012208E05CEA010206D030228DF804206D
:104E20008DF8050002229046009B83F0080353EAA8
:104E30000A030AD15CEA010201D1620705D53022DA
:104E40008DF804204FF001087F1E582804D034A0AC
:104E500003900EA802900DE036A0F9E75346604695
:104E6000009AFBF72AFC84460398825C0298401E55
:104E7000029002705CEA0100F0D1029806A9081ABB
:104E800000F1200A600702D524F4803400E00127F5
:104E9000574502DDA7EB0A0000E0002000EB0A0105
:104EA000009005984144401A0590E00306D45B4603
:104EB0002146179A059800F0B3F90544002706E04B
:104EC00001A85A46C05D179990476D1C7F1C474545
:104ED000F6DBE0030CD55B462146179A059800F0F7
:104EE0009FF9054404E030205A46179990476D1CFD
:104EF0000099481E00900029F5DC08E0029802990C
:104F00005A460078491C0291179990476D1CBAF1D6
:104F10000001AAF1010AF1DC65E1000009280100A5
:104F2000303132333435363738396162636465661F
:104F300000000000303132333435363738394142E1
:104F4000434445460000000000F058F90544761C33
:104F5000307800287FF4ECAD19B02846BDE8F08F1A
:104F6000620700D4062709F1070222F0070CFCE8CB
:104F70000223E14603F000485FEA080C02D00FF27A
:104F8000702C0DE05FEA045C02D50FF2682C07E09C
:104F90005FEAC47C02D00FF2602C01E0AFF2700C2B
:104FA0004FF0FF3823F00043CDF850C065280CD0F7
:104FB00006DC452809D046281DD047283DD13DE0D4
:104FC000662818D067287ED138E00021112F01DB38
:104FD000112000E0781CCDE9000106A90EA8FFF71A
:104FE000DDFCDDE90F010E9A03910021009207F12B
:104FF000010A04914DE04FF000400097CDE9011007
:1050000006A90EA8FFF7CAFCDDE90F0203920E9B6A
:1050100011990022DDF80CA00093049211B9791CBB
:1050200000EB010AB7EB0A0004D4C0F1FF3007F12E
:10503000010A0490AAEB0700019044E0012F00DA76
:1050400001270021112F01DD112000E03846CDE9B4
:10505000000106A90EA8FFF7A1FCDDE90F010E9AD9
:105060000391002104910092BA4621070CD40399C0
:10507000514500DA8A46BAF1010F05DD009AAAF11E
:105080000101515C302908D0B84202DA10F1040F56
:1050900006DA0121CDE9011015E0AAF10101E9E7E5
:1050A000002805DC049901440491AAEB000102E008
:1050B000411C514500DD8A460499401A401C01906C
:1050C0004FF000400290200704D40198504501DBC6
:1050D000CDF8048000208DF84F0002980DF14F07A5
:1050E000B0F1004F25D02B200E9002984FF002080F
:1050F00000280CDA404202902D200E9007E00A2191
:105100000298FBF7C4FA3031029007F8011DB8F19C
:105110000001A8F10108F2DC02980028EFD1791E05
:105120000E980870307800F0200040F0450007F835
:10513000020D12A8C01B00F107081498007800B1F6
:10514000012000EB0A01019801EBE0710598414450
:10515000401A401E0590E00306D45B462146179A8C
:10516000059800F05DF805441498007818B15A4687
:10517000179990476D1CE00324D55B462146179A8A
:10518000059800F04DF805441CE00498002807DB62
:10519000DDE90301884203DD0098405C179901E0D6
:1051A000179930205A469047049805F10105401C94
:1051B00004900198401E019004D12E205A46179960
:1051C00090476D1CBAF10001AAF1010ADDDC05E08F
:1051D00017F8010B5A46179990476D1CB8F100015A
:1051E000A8F10108F4DC5B462146179A0598ABE666
:1051F0002D0000002B000000200000002DE9F041F0
:10520000044600251E461746880404D405E03946A6
:105210002020B0476D1C641EF9D52846BDE8F081FA
:105220002DE9F041044600251E469046C80301D5ED
:10523000302700E02027880404D505E041463846A1
:10524000B0476D1C641EF9D52846BDE8F0810A6898
:10525000531C0B601070704700000000000000003D
:10526000010203040607080900000000010203040C
:105270000102EFBC8C0000000000000000000000F4
:10528000000000000000000000583800000000008E
:1052900000000000000000E3808200000000000029
:1052A00000000000000000000000000000001824C2
:1052B000241800000000000000000000E4BDA00071
:1052C00000008060F8074020180F08C80808281858
:1052D00000010000FF00100C0340807F0001061851
:1052E00000E5A5BD00001010F01F10F000808282C4
:1052F000E2928A86800040221508166100004080F4
:105300007F0000000000E4B8960000202020FE206E
:1053100020FF202020FF20202020000000007F40D0
:105320004047444444474040400000E7958C00001B
:10533000000000FE929292FE929292FE0000000007
:1053400008080484621E010001FE0204040808002B
:105350000000000000FF01010131090909098971FC
:1053600001010101FFFF8080808080809681808024
:1053700080808080FF0000000000000000002F00FF
:105380000000000700070000147F147F1400242A87
:105390007F2A120023130864620036495522500008
:1053A000000007000000001C224100000041221CF8
:1053B000000014083E08140008083E080800000019
:1053C000A0600000080808080800006060000000F5
:1053D0002010080402003E5149453E0000427F4033
:1053E00000004261514946002141454B31001814EB
:1053F000127F10002745454539003C4A4949300095
:105400000171090503003649494936000649492911
:105410001E0000363600000000563600000008145A
:105420002241000014141414140000412214080036
:105430000201510906003E4955592E007C121112F5
:105440007C007F49494936003E41414122007F416D
:1054500041221C007F49494941007F090909010097
:105460003E4149497A007F0808087F0000417F419A
:1054700000002040413F01007F08142241007F408E
:10548000404040007F020C027F007F0408107F0034
:105490003E4141413E007F09090906003E4151213C
:1054A0005E007F091929460046494949310001013A
:1054B0007F0101003F4040403F001F2040201F006F
:1054C0003F4038403F006314081463000708700829
:1054D0000700615149454300007F4141000002043B
:1054E000081020000041417F000004020102040076
:1054F0004040404040000001020400002054545449
:1055000078007F48444438003844444420003844FC
:1055100044487F00385454541800087E09010200A2
:1055200018A4A4A47C007F080404780000447D40F3
:1055300000004080847D00007F102844000000416E
:105540007F4000007C04180478007C080404780084
:10555000384444443800FC24242418001824241817
:10556000FC007C0804040800485454542000043F04
:10557000444020003C4040207C001C2040201C0077
:105580003C4030403C004428102844001CA0A0A00F
:105590007C004464544C440000087F41000000003B
:1055A0007F00000000417F08000008040810080088
:1055B00000000000000000000000000000000000EB
:1055C0000000F80000000000000033300000000080
:1055D000160E00160E000000000000000000004043
:1055E000C07840C0784000043F04043F0404000039
:1055F0007088FC08300000001820FF211E0000F019
:1056000008F000E018000000211C031E211E00000D
:10561000F00888700000001E2123241927211000A3
:105620000000160E00000000000000000000000056
:105630000000E018040200000000071820400000ED
:10564000020418E00000000040201807000000409D
:105650004080F0804040000202010F010202000081
:105660000000F0000000000101011F010101000025
:105670000000000000000000B0700000000000000A
:105680000000000000000000010101010101010013
:1056900000000000000000003030000000000000AA
:1056A000000000806018040060180601000000007F
:1056B000E010080810E000000F102020100F00007C
:1056C0001010F8000000000020203F202000000003
:1056D000700808088870000030282422213000005B
:1056E000300888884830000018202020110E000063
:1056F00000C02010F8000000070424243F2400000C
:10570000F80888880808000019212020110E0000E0
:10571000E0108888180000000F112020110E0000F2
:10572000380808C83808000000003F0000000000EA
:1057300070880808887000001C222121221C0000AB
:10574000E010080810E0000000312222110F0000D4
:105750000000C0C000000000000030300000000069
:105760000000C0C0000000000080B0700000000019
:1057700000804020100800000102040810200040B2
:10578000404040404040000404040404040400007D
:1057900008102040800000002010080402010000D2
:1057A0007048080808F0000000003036010000C012
:1057B00030C828E810E0000718272423140B000045
:1057C00000C038E0000000203C23020227382008F7
:1057D000F8888888700000203F202020110E00C02B
:1057E0003008080808380007182020201008000892
:1057F000F808080810E000203F202020100F0008C3
:10580000F88888E8081000203F202023201800088E
:10581000F88888E8081000203F200003000000C03E
:105820003008080838000007182020221E0200084F
:10583000F808000008F808203F210101213F20005E
:105840000808F8080800000020203F202000000081
:10585000000808F8080800C08080807F0000000869
:10586000F888C028180800203F20012638200008AA
:10587000F8080000000000203F2020202030000811
:10588000F8F800F8F80800203F003F003F2000082B
:10589000F830C00008F808203F200007183F00E05B
:1058A0001008080810E0000F10202020100F00083A
:1058B000F808080808F000203F210101010000E07D
:1058C0001008080810E0000F18242438504F000872
:1058D000F8888888887000203F2000030C30200062
:1058E000708808080838000038202121221C001880
:1058F0000808F8080818000000203F2000000008F1
:10590000F808000008F808001F202020201F0008C9
:1059100078880000C83808000007380E010000F839
:105920000800F80008F800033C0700073C030008E3
:105930001868808068180820302C03032C30200859
:1059400038C800C83808000000203F2000000010C0
:10595000080808C838080020382621202018000030
:105960000000FE020202000000007F4040400000F4
:105970000C30C000000000000000010638C000002C
:10598000020202FE000000004040407F00000000D4
:105990002010080408102000000000000000000093
:1059A00000000000000000808080808080808000F7
:1059B00002040800000000000000000000000000D9
:1059C000008080808000000019242222223F2008CD
:1059D000F8008080000000003F112020110E000020
:1059E00000008080800000000E11202020110000A7
:1059F0000000808088F800000E112020103F200059
:105A000000808080800000001F22222222130000DC
:105A10008080F0888888180020203F202000000027
:105A200000808080808000006B94949493600008D4
:105A3000F8008080800000203F210000203F2000EF
:105A4000809898000000000020203F2020000000E7
:105A50000000809898000000C08080807F000008CF
:105A6000F8000080808000203F24022D30200000BC
:105A70000808F8000000000020203F2020000080DF
:105A800080808080808000203F20003F20003F00F9
:105A90008080008080000000203F2100203F200007
:105AA00000808080800000001F202020201F0080B8
:105AB0008000808000000080FFA12020110E0000E7
:105AC00000008080808000000E112020A0FF8080D8
:105AD0008080008080800020203F21200001000085
